{
  "contractName": "AssetTracking",
  "abi": [
    {
      "anonymous": false,
      "inputs": [
        {
          "indexed": false,
          "internalType": "uint256",
          "name": "id",
          "type": "uint256"
        },
        {
          "indexed": false,
          "internalType": "string",
          "name": "tokenId",
          "type": "string"
        },
        {
          "indexed": false,
          "internalType": "string",
          "name": "description",
          "type": "string"
        },
        {
          "indexed": false,
          "internalType": "string",
          "name": "manufacturer",
          "type": "string"
        },
        {
          "indexed": false,
          "internalType": "string",
          "name": "quantity",
          "type": "string"
        }
      ],
      "name": "AssetCreateEvent",
      "type": "event"
    },
    {
      "anonymous": false,
      "inputs": [
        {
          "indexed": false,
          "internalType": "uint256",
          "name": "id",
          "type": "uint256"
        },
        {
          "indexed": false,
          "internalType": "string",
          "name": "tokenId",
          "type": "string"
        },
        {
          "indexed": false,
          "internalType": "string",
          "name": "description",
          "type": "string"
        },
        {
          "indexed": false,
          "internalType": "string",
          "name": "manufacturer",
          "type": "string"
        },
        {
          "indexed": false,
          "internalType": "string",
          "name": "quantity",
          "type": "string"
        },
        {
          "indexed": false,
          "internalType": "string",
          "name": "sendFrom",
          "type": "string"
        },
        {
          "indexed": false,
          "internalType": "string",
          "name": "sendTo",
          "type": "string"
        }
      ],
      "name": "AssetTransferEvent",
      "type": "event"
    },
    {
      "anonymous": false,
      "inputs": [
        {
          "indexed": false,
          "internalType": "address",
          "name": "_from",
          "type": "address"
        },
        {
          "indexed": false,
          "internalType": "string",
          "name": "colour",
          "type": "string"
        }
      ],
      "name": "ColourEvent",
      "type": "event"
    },
    {
      "constant": true,
      "inputs": [],
      "name": "asset",
      "outputs": [
        {
          "internalType": "uint256",
          "name": "id",
          "type": "uint256"
        },
        {
          "internalType": "string",
          "name": "tokenId",
          "type": "string"
        },
        {
          "internalType": "string",
          "name": "description",
          "type": "string"
        },
        {
          "internalType": "string",
          "name": "manufacturer",
          "type": "string"
        },
        {
          "internalType": "string",
          "name": "quantity",
          "type": "string"
        },
        {
          "internalType": "string",
          "name": "sendFrom",
          "type": "string"
        },
        {
          "internalType": "string",
          "name": "sendTo",
          "type": "string"
        }
      ],
      "payable": false,
      "stateMutability": "view",
      "type": "function"
    },
    {
      "constant": true,
      "inputs": [],
      "name": "colour",
      "outputs": [
        {
          "internalType": "string",
          "name": "",
          "type": "string"
        }
      ],
      "payable": false,
      "stateMutability": "view",
      "type": "function"
    },
    {
      "constant": true,
      "inputs": [],
      "name": "item",
      "outputs": [
        {
          "internalType": "uint256",
          "name": "id",
          "type": "uint256"
        }
      ],
      "payable": false,
      "stateMutability": "view",
      "type": "function"
    },
    {
      "constant": false,
      "inputs": [
        {
          "internalType": "uint256",
          "name": "id",
          "type": "uint256"
        }
      ],
      "name": "createItem",
      "outputs": [],
      "payable": false,
      "stateMutability": "nonpayable",
      "type": "function"
    },
    {
      "constant": false,
      "inputs": [
        {
          "internalType": "uint256",
          "name": "id",
          "type": "uint256"
        },
        {
          "internalType": "string",
          "name": "tokenId",
          "type": "string"
        },
        {
          "internalType": "string",
          "name": "description",
          "type": "string"
        },
        {
          "internalType": "string",
          "name": "manufacturer",
          "type": "string"
        },
        {
          "internalType": "string",
          "name": "quantity",
          "type": "string"
        }
      ],
      "name": "createAsset",
      "outputs": [],
      "payable": false,
      "stateMutability": "nonpayable",
      "type": "function"
    },
    {
      "constant": true,
      "inputs": [],
      "name": "readAsset",
      "outputs": [
        {
          "components": [
            {
              "internalType": "uint256",
              "name": "id",
              "type": "uint256"
            },
            {
              "internalType": "string",
              "name": "tokenId",
              "type": "string"
            },
            {
              "internalType": "string",
              "name": "description",
              "type": "string"
            },
            {
              "internalType": "string",
              "name": "manufacturer",
              "type": "string"
            },
            {
              "internalType": "string",
              "name": "quantity",
              "type": "string"
            },
            {
              "internalType": "string",
              "name": "sendFrom",
              "type": "string"
            },
            {
              "internalType": "string",
              "name": "sendTo",
              "type": "string"
            }
          ],
          "internalType": "struct AssetTracking.Asset",
          "name": "",
          "type": "tuple"
        }
      ],
      "payable": false,
      "stateMutability": "view",
      "type": "function"
    },
    {
      "constant": false,
      "inputs": [
        {
          "internalType": "uint256",
          "name": "id",
          "type": "uint256"
        },
        {
          "internalType": "string",
          "name": "tokenId",
          "type": "string"
        },
        {
          "internalType": "string",
          "name": "description",
          "type": "string"
        },
        {
          "internalType": "string",
          "name": "manufacturer",
          "type": "string"
        },
        {
          "internalType": "string",
          "name": "quantity",
          "type": "string"
        },
        {
          "internalType": "string",
          "name": "sendFrom",
          "type": "string"
        },
        {
          "internalType": "string",
          "name": "sendTo",
          "type": "string"
        }
      ],
      "name": "transferAsset",
      "outputs": [],
      "payable": false,
      "stateMutability": "nonpayable",
      "type": "function"
    },
    {
      "constant": false,
      "inputs": [
        {
          "internalType": "string",
          "name": "_colour",
          "type": "string"
        }
      ],
      "name": "AddColour",
      "outputs": [],
      "payable": false,
      "stateMutability": "nonpayable",
      "type": "function"
    },
    {
      "constant": true,
      "inputs": [],
      "name": "GetColour",
      "outputs": [
        {
          "internalType": "string",
          "name": "",
          "type": "string"
        }
      ],
      "payable": false,
      "stateMutability": "view",
      "type": "function"
    }
  ],
  "bytecode": "0x608060405234801561001057600080fd5b506113ce806100206000396000f3fe608060405234801561001057600080fd5b50600436106100935760003560e01c8063d7a5d5d311610066578063d7a5d5d3146100f9578063e639e59a1461010c578063f2a4a82e1461011f578063fae58c6414610134578063fdbd7f101461013c57610093565b806329f2e6321461009857806338d52e0f146100ad5780633dbc0610146100d15780639ac18cfd146100e6575b600080fd5b6100ab6100a6366004610d74565b610151565b005b6100b56101a2565b6040516100c89796959493929190611214565b60405180910390f35b6100d9610507565b6040516100c89190611176565b6100ab6100f4366004610dce565b610595565b6100ab610107366004610db0565b6106cb565b6100ab61011a366004610e9f565b6106de565b61012761080c565b6040516100c8919061119f565b6100d9610812565b6101446108a9565b6040516100c8919061118e565b8051610164906008906020840190610c3a565b507fb21ab7ab3e91c1fa07b55e9ba17d8f78080e8ff336b82844f48124f642e54cbf336008604051610197929190611156565b60405180910390a150565b6001805460028054604080516020838716156101000260001901909316849004601f8101849004840282018401909252818152939493929183018282801561022b5780601f106102005761010080835404028352916020019161022b565b820191906000526020600020905b81548152906001019060200180831161020e57829003601f168201915b50505060028085018054604080516020601f60001961010060018716150201909416959095049283018590048502810185019091528181529596959450909250908301828280156102bd5780601f10610292576101008083540402835291602001916102bd565b820191906000526020600020905b8154815290600101906020018083116102a057829003601f168201915b5050505060038301805460408051602060026001851615610100026000190190941693909304601f810184900484028201840190925281815294959493509083018282801561034d5780601f106103225761010080835404028352916020019161034d565b820191906000526020600020905b81548152906001019060200180831161033057829003601f168201915b5050505060048301805460408051602060026001851615610100026000190190941693909304601f81018490048402820184019092528181529495949350908301828280156103dd5780601f106103b2576101008083540402835291602001916103dd565b820191906000526020600020905b8154815290600101906020018083116103c057829003601f168201915b5050505060058301805460408051602060026001851615610100026000190190941693909304601f810184900484028201840190925281815294959493509083018282801561046d5780601f106104425761010080835404028352916020019161046d565b820191906000526020600020905b81548152906001019060200180831161045057829003601f168201915b5050505060068301805460408051602060026001851615610100026000190190941693909304601f81018490048402820184019092528181529495949350908301828280156104fd5780601f106104d2576101008083540402835291602001916104fd565b820191906000526020600020905b8154815290600101906020018083116104e057829003601f168201915b5050505050905087565b6008805460408051602060026001851615610100026000190190941693909304601f8101849004840282018401909252818152929183018282801561058d5780601f106105625761010080835404028352916020019161058d565b820191906000526020600020905b81548152906001019060200180831161057057829003601f168201915b505050505081565b6040805160e0810182528681526020808201878152828401879052606083018690526080830185905260a0830186905283518083019094526000845260c083019390935281516001908155925180519293926105f5926002920190610c3a565b5060408201518051610611916002840191602090910190610c3a565b506060820151805161062d916003840191602090910190610c3a565b5060808201518051610649916004840191602090910190610c3a565b5060a08201518051610665916005840191602090910190610c3a565b5060c08201518051610681916006840191602090910190610c3a565b509050507f2e0ddb63724247dc996334505cbd3f02ee0a23ff2a41118bb2cff7a9ac64ca9c85858585856040516106bc9594939291906111ad565b60405180910390a15050505050565b6040805160208101909152819052600055565b6040805160e0810182528881526020808201899052918101879052606081018690526080810185905260a0810184905260c08101839052600189815588519192909161073091600291908b0190610c3a565b506040820151805161074c916002840191602090910190610c3a565b5060608201518051610768916003840191602090910190610c3a565b5060808201518051610784916004840191602090910190610c3a565b5060a082015180516107a0916005840191602090910190610c3a565b5060c082015180516107bc916006840191602090910190610c3a565b509050507f472eb1c226a6a5126e79b664d28b0321e5873b09af5a1bd4a2326734446fe38e878787878787876040516107fb9796959493929190611214565b60405180910390a150505050505050565b60005481565b60088054604080516020601f600260001961010060018816150201909516949094049384018190048102820181019092528281526060939092909183018282801561089e5780601f106108735761010080835404028352916020019161089e565b820191906000526020600020905b81548152906001019060200180831161088157829003601f168201915b505050505090505b90565b6108b1610cb8565b6040805160e0810182526001805482526002805484516020828516156101000260001901909216839004601f8101839004830282018301909652858152939492938186019390929183018282801561094a5780601f1061091f5761010080835404028352916020019161094a565b820191906000526020600020905b81548152906001019060200180831161092d57829003601f168201915b5050509183525050600282810180546040805160206001841615610100026000190190931694909404601f810183900483028501830190915280845293810193908301828280156109dc5780601f106109b1576101008083540402835291602001916109dc565b820191906000526020600020905b8154815290600101906020018083116109bf57829003601f168201915b505050918352505060038201805460408051602060026001851615610100026000190190941693909304601f8101849004840282018401909252818152938201939291830182828015610a705780601f10610a4557610100808354040283529160200191610a70565b820191906000526020600020905b815481529060010190602001808311610a5357829003601f168201915b505050918352505060048201805460408051602060026001851615610100026000190190941693909304601f8101849004840282018401909252818152938201939291830182828015610b045780601f10610ad957610100808354040283529160200191610b04565b820191906000526020600020905b815481529060010190602001808311610ae757829003601f168201915b505050918352505060058201805460408051602060026001851615610100026000190190941693909304601f8101849004840282018401909252818152938201939291830182828015610b985780601f10610b6d57610100808354040283529160200191610b98565b820191906000526020600020905b815481529060010190602001808311610b7b57829003601f168201915b505050918352505060068201805460408051602060026001851615610100026000190190941693909304601f8101849004840282018401909252818152938201939291830182828015610c2c5780601f10610c0157610100808354040283529160200191610c2c565b820191906000526020600020905b815481529060010190602001808311610c0f57829003601f168201915b505050505081525050905090565b828054600181600116156101000203166002900490600052602060002090601f016020900481019282601f10610c7b57805160ff1916838001178555610ca8565b82800160010185558215610ca8579182015b82811115610ca8578251825591602001919060010190610c8d565b50610cb4929150610cf5565b5090565b6040518060e00160405280600081526020016060815260200160608152602001606081526020016060815260200160608152602001606081525090565b6108a691905b80821115610cb45760008155600101610cfb565b600082601f830112610d2057600080fd5b8135610d33610d2e826112cb565b6112a5565b91508082526020830160208301858383011115610d4f57600080fd5b610d5a83828461132e565b50505092915050565b8035610d6e81611374565b92915050565b600060208284031215610d8657600080fd5b81356001600160401b03811115610d9c57600080fd5b610da884828501610d0f565b949350505050565b600060208284031215610dc257600080fd5b6000610da88484610d63565b600080600080600060a08688031215610de657600080fd5b6000610df28888610d63565b95505060208601356001600160401b03811115610e0e57600080fd5b610e1a88828901610d0f565b94505060408601356001600160401b03811115610e3657600080fd5b610e4288828901610d0f565b93505060608601356001600160401b03811115610e5e57600080fd5b610e6a88828901610d0f565b92505060808601356001600160401b03811115610e8657600080fd5b610e9288828901610d0f565b9150509295509295909350565b600080600080600080600060e0888a031215610eba57600080fd5b6000610ec68a8a610d63565b97505060208801356001600160401b03811115610ee257600080fd5b610eee8a828b01610d0f565b96505060408801356001600160401b03811115610f0a57600080fd5b610f168a828b01610d0f565b95505060608801356001600160401b03811115610f3257600080fd5b610f3e8a828b01610d0f565b94505060808801356001600160401b03811115610f5a57600080fd5b610f668a828b01610d0f565b93505060a08801356001600160401b03811115610f8257600080fd5b610f8e8a828b01610d0f565b92505060c08801356001600160401b03811115610faa57600080fd5b610fb68a828b01610d0f565b91505092959891949750929550565b610fce81611317565b82525050565b6000610fdf826112fe565b610fe98185611302565b9350610ff981856020860161133a565b6110028161136a565b9093019392505050565b600081546001811660008114611029576001811461104f5761108e565b607f600283041661103a8187611302565b60ff198416815295505060208501925061108e565b6002820461105d8187611302565b9550611068856112f2565b60005b828110156110875781548882015260019091019060200161106b565b8701945050505b505092915050565b805160009060e08401906110aa858261114d565b50602083015184820360208601526110c28282610fd4565b915050604083015184820360408601526110dc8282610fd4565b915050606083015184820360608601526110f68282610fd4565b915050608083015184820360808601526111108282610fd4565b91505060a083015184820360a086015261112a8282610fd4565b91505060c083015184820360c08601526111448282610fd4565b95945050505050565b610fce816108a6565b604081016111648285610fc5565b8181036020830152610da8818461100c565b602080825281016111878184610fd4565b9392505050565b602080825281016111878184611096565b60208101610d6e828461114d565b60a081016111bb828861114d565b81810360208301526111cd8187610fd4565b905081810360408301526111e18186610fd4565b905081810360608301526111f58185610fd4565b905081810360808301526112098184610fd4565b979650505050505050565b60e08101611222828a61114d565b81810360208301526112348189610fd4565b905081810360408301526112488188610fd4565b9050818103606083015261125c8187610fd4565b905081810360808301526112708186610fd4565b905081810360a08301526112848185610fd4565b905081810360c08301526112988184610fd4565b9998505050505050505050565b6040518181016001600160401b03811182821017156112c357600080fd5b604052919050565b60006001600160401b038211156112e157600080fd5b506020601f91909101601f19160190565b60009081526020902090565b5190565b90815260200190565b6001600160a01b031690565b6000610d6e826000610d6e826000610d6e8261130b565b82818337506000910152565b60005b8381101561135557818101518382015260200161133d565b83811115611364576000848401525b50505050565b601f01601f191690565b61137d816108a6565b811461138857600080fd5b5056fea365627a7a72315820bdd76eef61637224020586393828169201d6f441bff0abfdbfe299d3207aa9606c6578706572696d656e74616cf564736f6c634300050c0040",
  "source": "pragma solidity ^0.5.0;\r\npragma experimental ABIEncoderV2;\r\n\r\ncontract AssetTracking{\r\n\r\n  struct Item{\r\n  \tuint id;\r\n  }\r\n  \r\n  Item public item;\r\n\r\n  struct Asset {\r\n            uint id;\r\n            string tokenId;\r\n            string description;\r\n            string manufacturer;\r\n            string quantity;\r\n            string sendFrom;\r\n            string sendTo;\r\n   }\r\n\r\n  Asset public asset;\r\n\r\n  event AssetCreateEvent(\r\n  \t  \tuint id,\r\n  \t\tstring tokenId,\r\n  \t\tstring description,\r\n  \t\tstring manufacturer,\r\n  \t\tstring quantity\r\n  );\r\n\r\n  event AssetTransferEvent(\r\n  \t\tuint id,\r\n        string tokenId,\r\n        string description,\r\n        string manufacturer,\r\n        string quantity,\r\n        string sendFrom,\r\n        string sendTo\r\n  );\r\n\r\n  function createItem(uint id)public{\r\n  \t\titem = Item(id);\r\n  }\r\n\r\n  function createAsset(uint id, string memory tokenId, string memory description, string memory manufacturer, string memory quantity) public{\r\n        asset = Asset(id, tokenId, description, manufacturer, quantity, manufacturer, \"\");\r\n        emit AssetCreateEvent(id, tokenId, description, manufacturer, quantity);\r\n   }\r\n\r\n  function readAsset() view public returns(Asset memory){ \r\n            return(asset);\r\n   }\r\n\r\n  function transferAsset( uint id, string memory tokenId, string memory description, string memory manufacturer, string memory quantity, string memory sendFrom, string memory sendTo) public{\r\n  \t\tasset = Asset(id, tokenId, description, manufacturer, quantity, sendFrom, sendTo);\r\n  \t\temit AssetTransferEvent(id, tokenId, description, manufacturer, quantity, sendFrom, sendTo);\r\n   }\r\n\r\n  string public colour;\r\n\r\n  // Event that is fired when colour is changed\r\n  event ColourEvent(\r\n  \t\t\taddress _from,\r\n  \t\t\tstring colour\r\n  );\r\n\r\n\r\n  function AddColour(string memory _colour ) public {\r\n    colour = _colour;\r\n    emit ColourEvent(msg.sender, colour); // fire the event\r\n  }\r\n\r\n\r\n  function GetColour()view public returns(string memory){\r\n      return colour;\r\n  }\r\n  \r\n}",
  "sourcePath": "C:/Users/Kosala/project03/contracts/AssetTracking.sol",
  "compiler": {
    "name": "solc",
    "version": "0.5.12+commit.7709ece9.Emscripten.clang"
  },
  "schemaVersion": "3.0.19",
  "updatedAt": "2019-12-16T09:42:34.678Z",
  "networkType": "ethereum",
  "devdoc": {
    "methods": {}
  },
  "userdoc": {
    "methods": {}
  }
}